:100000000C945D000C947A000C947A000C947A00A5
:100010000C947A000C947A000C947A000C947A0078
:100020000C947A000C947A000C947A000C947A0068
:100030000C947A000C947A000C947A000C947A0058
:100040000C947C000C947A000C947A000C947A0046
:100050000C947A000C947A000C947A000C947A0038
:100060000C947A000C947A00000000002400270011
:100070002A0000000000250028002B0004040404CE
:100080000404040402020202020203030303030342
:10009000010204081020408001020408102001021F
:1000A00004081020000000080002010000030407FB
:1000B0000000000000000000A00111241FBECFEFCF
:1000C000D8E0DEBFCDBF21E0A0E0B1E001C01D92CD
:1000D000A731B207E1F710E0CDE5D0E004C02197E9
:1000E000FE010E94DD01CC35D107C9F70E94C60090
:1000F0000C94E3010C9400001F920F920FB60F9224
:1001000011242F933F938F939F93AF93BF9380912D
:10011000050190910601A0910701B091080130916D
:10012000040123E0230F2D3758F50196A11DB11DC1
:10013000209304018093050190930601A093070189
:10014000B09308018091000190910101A0910201FA
:10015000B09103010196A11DB11D80930001909300
:100160000101A0930201B0930301BF91AF919F9150
:100170008F913F912F910F900FBE0F901F90189568
:1001800026E8230F0296A11DB11DD2CF789484B525
:10019000826084BD84B5816084BD85B5826085BD83
:1001A00085B5816085BD80916E00816080936E0011
:1001B0001092810080918100826080938100809103
:1001C00081008160809381008091800081608093B4
:1001D00080008091B10084608093B1008091B00074
:1001E00081608093B00080917A00846080937A006F
:1001F00080917A00826080937A0080917A00816099
:1002000080937A0080917A00806880937A001092BF
:10021000C100C0E0D0E011E08FB7F8944091050133
:100220005091060160910701709108018FBF809184
:10023000130190911401A0911501B0911601481776
:1002400059076A077B0708F447C080910A01882391
:1002500009F448C010920A0180910F019091100199
:10026000A0911101B0911201840F951FA61FB71F15
:100270008093130190931401A0931501B09316017C
:100280008091090190E0FC01EC55FF4F3491FC0195
:10029000E057FF4F2491FC01E458FF4FE491EE2317
:1002A000D9F090910A01332339F0333081F128F5E8
:1002B000313099F13230A9F1F0E0EE0FFF1FEE5826
:1002C000FF4FA591B4918FB7F894EC91911136C07E
:1002D00020952E232C938FBF209709F49DCF0E9449
:1002E00000009ACF10930A0180910B0190910C01AC
:1002F000A0910D01B0910E01B7CF3730A9F0383081
:10030000C9F03430C9F6809180008F7D03C08091A0
:1003100080008F7780938000CFCF84B58F7784BDA6
:10032000CBCF84B58F7DFBCF8091B0008F7780934A
:10033000B000C2CF8091B0008F7DF9CF2E2BCACFF5
:1003400010920A01109213011092140110921501DB
:100350001092160188E08093090184EF91E0A0E0FB
:10036000B0E080930B0190930C01A0930D01B0932A
:100370000E0180930F0190931001A0931101B0938F
:100380001201E8E9F0E02491E4E8F0E084918823A8
:1003900099F090E0880F991FFC01E859FF4FA59153
:1003A000B491FC01EE58FF4F859194918FB7F8946A
:1003B000EC91E22BEC938FBF0895EE0FFF1F059099
:0A03C000F491E02D0994F894FFCFAA
:00000001FF
