:020000040000FA
:100000000C945D000C9485000C9485000C94850084
:100010000C9485000C9485000C9485000C9485004C
:100020000C9485000C9485000C9485000C9485003C
:100030000C9485000C9485000C9485000C9485002C
:100040000C943D020C9485000C940B020C94E50179
:100050000C9485000C9485000C9485000C9485000C
:100060000C9485000C94850000000008000201003B
:100070000003040700000000000000000000000072
:10008000250028002B0000000000240027002A0083
:10009000040404040404040402020202020203032E
:1000A0000303030301020408102040800102040836
:1000B0001020010204081020870211241FBECFEF78
:1000C000D8E0DEBFCDBF11E0A0E0B1E0E4E0FFE0AA
:1000D00002C005900D92A432B107D9F721E0A4E245
:1000E000B1E001C01D92AB3EB207E1F710E0CDE5F3
:1000F000D0E004C02197FE010E947A07CC35D107D9
:10010000C9F70E9455030C9480070C940000AF922D
:10011000BF92CF92DF92EF92FF920F931F93CF93F4
:10012000DF936C017B018B01040F151FEB015E0156
:10013000AE18BF08C017D10759F06991D601ED91EB
:10014000FC910190F081E02DC6010995892B79F78A
:10015000C501DF91CF911F910F91FF90EF90DF903C
:10016000CF90BF90AF900895FC01538D448D252F03
:1001700030E0842F90E0821B930B541710F0CF9641
:10018000089501970895FC01918D828D981761F073
:10019000A28DAE0FBF2FB11D5D968C91928D9F5F8A
:1001A0009F73928F90E008958FEF9FEF0895FC0169
:1001B000918D828D981731F0828DE80FF11D858D1C
:1001C00090E008958FEF9FEF0895FC01918D228DAF
:1001D000892F90E0805C9F4F821B91098F73992734
:1001E00008958DE291E00E94E50021E0892B09F459
:1001F00020E0822F089580E090E0892B29F00E9472
:10020000F10081110C9400000895FC01A48DA80F49
:10021000B92FB11DA35ABF4F2C91848D90E0019648
:100220008F739927848FA689B7892C93A089B18968
:100230008C91837080648C93938D848D981306C009
:100240000288F389E02D80818F7D80830895EF926D
:10025000FF920F931F93CF93DF93EC0181E0888F80
:100260009B8D8C8D98131AC0E889F989808185FF50
:1002700015C09FB7F894EE89FF896083E889F989F2
:1002800080818370806480839FBF81E090E0DF91F4
:10029000CF911F910F91FF90EF900895F62E0B8D47
:1002A00010E00F5F1F4F0F731127E02E8C8D8E1102
:1002B0000CC00FB607FCFACFE889F989808185FF69
:1002C000F5CFCE010E940501F1CFEB8DEC0FFD2F94
:1002D000F11DE35AFF4FF0829FB7F8940B8FEA8924
:1002E000FB8980818062CFCFCF93DF93EC01888D33
:1002F0008823B9F0AA89BB89E889F9898C9185FDA1
:1003000003C0808186FD0DC00FB607FCF7CF8C912E
:1003100085FFF2CF808185FFEDCFCE010E940501E0
:10032000E9CFDF91CF910895FC0101900020E9F71A
:100330003197AF01481B590BBC018DE291E00C9441
:1003400087008F929F92AF92BF920F931F93CF938C
:10035000DF93CDB7DEB7A1970FB6F894DEBF0FBE1F
:10036000CDBF19A2423008F44AE08E010F5D1F4F45
:10037000842E912CB12CA12CA50194010E94580728
:10038000E62FB901CA01EA30F4F4E05DD801EE933A
:100390008D01232B242B252B79F790E080E01097FB
:1003A00019F0CD010E949401A1960FB6F894DEBF1A
:1003B0000FBECDBFDF91CF911F910F91BF90AF9036
:1003C0009F908F900895E95CE1CF1F920F920FB636
:1003D0000F9211242F933F934F935F936F937F93CB
:1003E0008F939F93AF93BF93EF93FF938DE291E031
:1003F0000E940501FF91EF91BF91AF919F918F9165
:100400007F916F915F914F913F912F910F900FBE10
:100410000F901F9018951F920F920FB60F921124F4
:100420002F938F939F93EF93FF93E0913D01F09172
:100430003E018081E0914301F091440182FD1BC0A7
:100440009081809146018F5F8F73209147018217C1
:1004500041F0E0914601F0E0E35DFE4F958F80931F
:100460004601FF91EF919F918F912F910F900FBEB9
:100470000F901F9018958081F4CF1F920F920FB6A6
:100480000F9211242F933F938F939F93AF93BF931A
:100490008091290190912A01A0912B01B0912C010A
:1004A0003091280123E0230F2D3758F50196A11D27
:1004B000B11D209328018093290190932A01A093D4
:1004C0002B01B0932C018091240190912501A091E2
:1004D0002601B09127010196A11DB11D8093240131
:1004E00090932501A0932601B0932701BF91AF916E
:1004F0009F918F913F912F910F900FBE0F901F9062
:10050000189526E8230F0296A11DB11DD2CFCF93D7
:10051000DF931092300110922F0188EE93E0A0E05B
:10052000B0E08093310190933201A0933301B093F6
:10053000340124E031E030932E0120932D0125EC8D
:1005400030E030933A012093390124EC30E03093CD
:100550003C0120933B0120EC30E030933E0120939E
:100560003D0121EC30E03093400120933F0122EC2B
:1005700030E0309342012093410126EC30E030938B
:1005800044012093430110924601109247011092BA
:100590004801109249011092DE011092E701109279
:1005A000E8011092E9011092EA0128E02093DD01B0
:1005B0008093DF019093E001A093E101B093E20109
:1005C00080ED97E0A0E0B0E08093E3019093E40138
:1005D000A093E501B093E601ECEAF0E02491E8E9AC
:1005E000F0E08491882399F090E0880F991FFC0136
:1005F000EA57FF4FA591B491FC01E458FF4F859154
:1006000094918FB7F894EC91E22BEC938FBF1092FA
:10061000CF011092D0011092D1011092D20110920C
:10062000D4011092D3011092D5011092D6011092EC
:10063000D7011092D8011092D9011092DA011092CC
:10064000DB011092DC018EE08093CA0184EF91E01F
:10065000A0E0B0E08093CB019093CC01A093CD01BA
:10066000B093CE01E2EBF0E02491EEE9F0E084916A
:100670008823C1F090E0880F991FFC01EA57FF4FD3
:10068000C591D491FC01E458FF4FA591B4919FB757
:10069000F8948881E22FE0958E2388838C91E8235B
:1006A000EC939FBFDF91CF910895789484B58260D9
:1006B00084BD84B5816084BD85B5826085BD85B506
:1006C000816085BD80916E00816080936E00109284
:1006D00081008091810082608093810080918100FF
:1006E0008160809381008091800081608093800090
:1006F0008091B10084608093B1008091B0008160EE
:100700008093B00080917A00846080937A00809119
:100710007A00826080937A0080917A008160809371
:100720007A0080917A00806880937A001092C100EC
:10073000E0913D01F0913E0182E08083E09139013A
:10074000F0913A011082E0913B01F0913C018FEC75
:10075000808310924501E0914101F091420186E0D1
:100760008083E0913F01F09140018081806180832E
:10077000E0913F01F0914001808188608083E091A9
:100780003F01F0914001808180688083E0913F01CA
:10079000F091400180818F7D8083C0E0D0E011E046
:1007A0008FB7F8944091290150912A0160912B0153
:1007B00070912C018FBF8091E7019091E801A09189
:1007C000E901B091EA01481759076A077B0708F465
:1007D0004BC08091DE01882309F4DFC01092DE0156
:1007E0008091E3019091E401A091E501B091E601CF
:1007F000840F951FA61FB71F8093E7019093E80110
:10080000A093E901B093EA018091DD0190E0FC0141
:10081000E859FF4F3491FC01EC55FF4F2491FC0146
:10082000E057FF4FE491EE23F9F09091DE0133237E
:1008300059F0333009F4C7C008F0BAC0313009F4B8
:10084000C8C0323009F4C9C0F0E0EE0FFF1FE45811
:10085000FF4FA591B4918FB7F894EC919111CAC054
:1008600020952E232C938FBF8FB7F894C090290129
:10087000D0902A01E0902B01F0902C018FBF809145
:10088000CF019091D001A091D101B091D201C816B1
:10089000D906EA06FB0608F458C08091CA018E30DA
:1008A00008F08E508770806480937C0080917A007D
:1008B000806480937A0080917A0086FDFCCF8091DD
:1008C000780060917900762F682F7093D40160933F
:1008D000D301072E000C880B990B0E9431062AE0E9
:1008E00038E240EA5BE30E94E6066093D50170932C
:1008F000D6018093D7019093D8012FE135E841EBE1
:1009000051EC0E94E60627ED33EA46E652E40E94E7
:100910008F056093D9017093DA018093DB01909386
:10092000DC018091CB019091CC01A091CD01B091DF
:10093000CE018C0D9D1DAE1DBF1D8093CF019093E8
:10094000D001A093D101B093D201C090D501D09035
:10095000D601E090D701F090D801A7019601C70118
:10096000B6010E945307882309F446C082E191E052
:100970000E9494018EE191E00E94940181E291E055
:100980000E949401209709F40BCF0E94F100882364
:1009900009F406CF0E94000003CF1093DE0180917E
:1009A000DF019091E001A091E101B091E20120CF3F
:1009B0003730B1F03830D1F0343009F045CF809184
:1009C00080008F7D03C0809180008F7780938000AE
:1009D0003BCF84B58F7784BD37CF84B58F7DFBCF78
:1009E0008091B0008F778093B0002ECF8091B000BF
:1009F0008F7DF9CF2E2B36CF46015701E894B7F8FB
:100A00002FEF3FEF4FE75FE7C501B4010E945307A7
:100A100081110DC02FEF3FEF4FE75FE7C501B40134
:100A20000E94FB0518161CF486E191E0A1CF2FEF80
:100A30003FEF4FE75FE4C701B6010E94E1061816D9
:100A40001CF48AE191E094CF2FEF3FEF4FE75FEC8A
:100A5000C701B6010E94FB0587FDF3CF20E030E01F
:100A6000A901C701B6010E94FB0587FF09C06DE21D
:100A70008DE291E00E942701F7FAF094F7F8F094E4
:100A80002AE037ED43EA5BE3C701B6010E948F0518
:100A90004B015C010E9400066B017C010E942F0645
:100AA0009B01AC01C501B4010E948E054B015C01A4
:100AB0004AE0C701B6010E94A1016EE28DE291E019
:100AC0000E94270120E030E040E251E4C501B4017A
:100AD0000E94E6064B015C010E9400066B01F12CAE
:100AE000E12C4AE0C701B6010E94A101C701B6018D
:100AF0000E942F069B01AC01C501B4010E948E0526
:100B000020E030E040E251E40E94E6060E94000648
:100B100090E080E04AE00E94A1012CCF5058BB2712
:100B2000AA270E94A6050C94A7060E94990638F0F1
:100B30000E94A00620F039F49F3F19F426F40C948B
:100B400096060EF4E095E7FB0C949006E92F0E94C0
:100B5000B80658F3BA17620773078407950720F0A1
:100B600079F4A6F50C94DA060EF4E0950B2EBA2F64
:100B7000A02D0B01B90190010C01CA01A0011124A3
:100B8000FF27591B99F0593F50F4503E68F11A164F
:100B9000F040A22F232F342F4427585FF3CF4695E0
:100BA00037952795A795F0405395C9F77EF41F1602
:100BB000BA0B620B730B840BBAF09150A1F0FF0FCC
:100BC000BB1F661F771F881FC2F70EC0BA0F621FB8
:100BD000731F841F48F4879577956795B795F795A8
:100BE0009E3F08F0B0CF9395880F08F09927EE0F3D
:100BF0009795879508950E946C0608F481E0089502
:100C00000E94C00688F09F5798F0B92F9927B751D6
:100C1000B0F0E1F0660F771F881F991F1AF0BA95A0
:100C2000C9F714C0B13091F00E94DA06B1E008951E
:100C30000C94DA06672F782F8827B85F39F0B93F10
:100C4000CCF3869577956795B395D9F73EF4909553
:100C50008095709561957F4F8F4F9F4F0895E894D1
:100C600009C097FB3EF490958095709561957F4FF4
:100C70008F4F9F4F9923A9F0F92F96E9BB279395A2
:100C8000F695879577956795B795F111F8CFFAF4B2
:100C9000BB0F11F460FF1BC06F5F7F4F8F4F9F4FE3
:100CA00016C0882311F096E911C0772321F09EE841
:100CB000872F762F05C0662371F096E8862F70E0A7
:100CC00060E02AF09A95660F771F881FDAF7880F81
:100CD0009695879597F90895990F0008550FAA0BD7
:100CE000E0E8FEEF16161706E807F907C0F012163F
:100CF0001306E407F50798F0621B730B840B950B42
:100D000039F40A2661F0232B242B252B21F4089596
:100D10000A2609F4A140A6958FEF811D811D089533
:100D200097F99F6780E870E060E008959FEF80EC9E
:100D3000089500240A941616170618060906089541
:100D400000240A9412161306140605060895092EA7
:100D50000394000C11F4882352F0BB0F40F4BF2B16
:100D600011F460FF04C06F5F7F4F8F4F9F4F089556
:100D700057FD9058440F551F59F05F3F71F047954C
:100D8000880F97FB991F61F09F3F79F08795089531
:100D9000121613061406551FF2CF4695F1DF08C050
:100DA000161617061806991FF1CF8695710561056D
:100DB00008940895E894BB2766277727CB0197F915
:100DC00008950E946C0608F48FEF08950E94F906BA
:100DD0000C94A7060E94990638F00E94A00620F005
:100DE000952311F00C9490060C94960611240C9403
:100DF000DB060E94B80670F3959FC1F3950F50E093
:100E0000551F629FF001729FBB27F00DB11D639FBC
:100E1000AA27F00DB11DAA1F649F6627B00DA11D62
:100E2000661F829F2227B00DA11D621F739FB00D08
:100E3000A11D621F839FA00D611D221F749F332778
:100E4000A00D611D231F849F600D211D822F762F11
:100E50006A2F11249F5750409AF0F1F088234AF0EE
:100E6000EE0FFF1FBB1F661F771F881F915050405A
:100E7000A9F79E3F510580F00C9490060C94DB0678
:100E80005F3FE4F3983ED4F3869577956795B795E1
:100E9000F795E7959F5FC1F7FE2B880F911D9695FB
:100EA000879597F908950E946C06880B990B089511
:100EB000A1E21A2EAA1BBB1BFD010DC0AA1FBB1F5E
:100EC000EE1FFF1FA217B307E407F50720F0A21BD0
:100ED000B30BE40BF50B661F771F881F991F1A943D
:100EE00069F760957095809590959B01AC01BD0167
:100EF000CF010895EE0FFF1F0590F491E02D0994A6
:100F0000F894FFCF0000000027018700B4007401AF
:100F1000E500C300D7006E616E00696E66006F76F3
:080F200066000D0A002000002C
:107E0000112484B714BE81FFF0D085E080938100F7
:107E100082E08093C00088E18093C10086E0809377
:107E2000C20080E18093C4008EE0C9D0259A86E02C
:107E300020E33CEF91E0309385002093840096BBD3
:107E4000B09BFECF1D9AA8958150A9F7CC24DD24C4
:107E500088248394B5E0AB2EA1E19A2EF3E0BF2EE7
:107E6000A2D0813461F49FD0082FAFD0023811F036
:107E7000013811F484E001C083E08DD089C08234E0
:107E800011F484E103C0853419F485E0A6D080C0E4
:107E9000853579F488D0E82EFF2485D0082F10E0AE
:107EA000102F00270E291F29000F111F8ED06801E7
:107EB0006FC0863521F484E090D080E0DECF843638
:107EC00009F040C070D06FD0082F6DD080E0C81688
:107ED00080E7D80618F4F601B7BEE895C0E0D1E017
:107EE00062D089930C17E1F7F0E0CF16F0E7DF06D8
:107EF00018F0F601B7BEE89568D007B600FCFDCFD4
:107F0000A601A0E0B1E02C9130E011968C91119780
:107F100090E0982F8827822B932B1296FA010C0160
:107F200087BEE89511244E5F5F4FF1E0A038BF0790
:107F300051F7F601A7BEE89507B600FCFDCF97BE46
:107F4000E89526C08437B1F42ED02DD0F82E2BD052
:107F50003CD0F601EF2C8F010F5F1F4F84911BD097
:107F6000EA94F801C1F70894C11CD11CFA94CF0C13
:107F7000D11C0EC0853739F428D08EE10CD085E9AC
:107F80000AD08FE07ACF813511F488E018D01DD067
:107F900080E101D065CF982F8091C00085FFFCCF94
:107FA0009093C60008958091C00087FFFCCF809118
:107FB000C00084FD01C0A8958091C6000895E0E648
:107FC000F0E098E1908380830895EDDF803219F02E
:107FD00088E0F5DFFFCF84E1DECF1F93182FE3DFCA
:107FE0001150E9F7F2DF1F91089580E0E8DFEE27F6
:047FF000FF270994CA
:027FFE00040479
:00000001FF
