:100000000C9461000C947E000C947E000C947E0095
:100010000C947E000C947E000C947E000C947E0068
:100020000C947E000C947E000C947E000C947E0058
:100030000C947E000C947E000C947E000C947E0048
:100040000C94D4000C947E000C947E000C947E00E2
:100050000C947E000C947E000C947E000C947E0028
:100060000C947E000C947E00000000002400270009
:100070002A000000000023002600290000000000E4
:10008000250028002B0004040404040404040202D4
:100090000202020203030303030301020408102007
:1000A0004080010204081020010204081020000012
:1000B0000008000201000003040700000000000027
:1000C000000011241FBECFEFD8E0DEBFCDBF11E08E
:1000D000A0E0B1E0ECE5F4E002C005900D92A230A2
:1000E000B107D9F721E0A2E0B1E001C01D92A33130
:1000F000B207E1F70E941E010C942C020C94000040
:10010000833081F028F4813099F08230A9F008958D
:100110008730A9F08830C9F08430B1F48091800034
:100120008F7D03C0809180008F7780938000089539
:1001300084B58F7784BD089584B58F7DFBCF809182
:10014000B0008F778093B00008958091B0008F7DCC
:10015000F9CF1F93CF93DF93E2EBF0E09491EEE9B8
:10016000F0E0D491EAE8F0E0C491CC23B9F0182F84
:10017000992319F0892F0E948000EC2FF0E0EE0FF8
:10018000FF1FE458FF4FA591B4918FB7F894EC91FD
:10019000111108C0D095DE23DC938FBFDF91CF9182
:1001A0001F910895DE2BF8CF1F920F920FB60F927A
:1001B00011242F933F938F939F93AF93BF9380917D
:1001C000070190910801A0910901B0910A013091B5
:1001D000060123E0230F2D3758F50196A11DB11D0F
:1001E000209306018093070190930801A0930901D1
:1001F000B0930A018091020190910301A091040142
:10020000B09105010196A11DB11D8093020190934B
:100210000301A0930401B0930501BF91AF919F9199
:100220008F913F912F910F900FBE0F901F901895B7
:1002300026E8230F0296A11DB11DD2CF789484B574
:10024000826084BD84B5816084BD85B5826085BDD2
:1002500085B5816085BD80916E00816080936E0060
:100260001092810080918100826080938100809152
:100270008100816080938100809180008160809303
:1002800080008091B10084608093B1008091B000C3
:1002900081608093B00080917A00846080937A00BE
:1002A00080917A00826080937A0080917A008160E8
:1002B00080937A0080917A00806880937A0010920F
:1002C000C100C2EAD0E0FE0124910EE810E0F8017E
:1002D00084918823C9F090E0880F991FFC01E859A8
:1002E000FF4FA591B491FC01E458FF4F4591549103
:1002F0003FB7F8949C91822F809598239C93FA01A4
:100300009081892380833FBFEEE9F0E02491EAE801
:10031000F0E08491882399F090E0880F991FFC0108
:10032000E859FF4FA591B491FC01E458FF4F859126
:1003300094918FB7F894EC91E22BEC938FBF80915E
:1003400000010E94A90096EBE92E90E0F92E20E032
:10035000C22E20E0D22EF7018491FE01A490F80174
:10036000B490BB2009F475C081110E948000EB2D70
:10037000F0E0EE0FFF1FEE58FF4FA591B4918C9166
:10038000A82291E080E009F490E0A92EB82E809197
:100390001101909112018A159B0599F02FB7F894DD
:1003A0008091070190910801A0910901B0910A0183
:1003B0002FBF80930D0190930E01A0930F01B09376
:1003C00010012FB7F8948091070190910801A09136
:1003D0000901B0910A012FBF40910D0150910E010A
:1003E00060910F0170911001841B950BA60BB70B48
:1003F000893E9340A105B105E8F080910B019091F1
:100400000C018A159B05B1F020910001309101018A
:10041000B0920C01A0920B0181E0A816B10451F436
:1004200081E090E0232B11F090E080E090930101B7
:1004300080930001809100010E94A900B0921201F6
:10044000A0921101C114D10409F485CF0E940000CB
:0C04500082CFB12CA12C9BCFF894FFCFE1
:02045C0001009D
:00000001FF
